{
  "_format": "hh-sol-artifact-1",
  "contractName": "NFTMarketplace",
  "sourceName": "contracts/NFTMarketplace.sol",
  "abi": [
    {
      "inputs": [],
      "stateMutability": "nonpayable",
      "type": "constructor"
    },
    {
      "anonymous": false,
      "inputs": [
        {
          "indexed": true,
          "internalType": "address",
          "name": "owner",
          "type": "address"
        },
        {
          "indexed": true,
          "internalType": "address",
          "name": "approved",
          "type": "address"
        },
        {
          "indexed": true,
          "internalType": "uint256",
          "name": "tokenId",
          "type": "uint256"
        }
      ],
      "name": "Approval",
      "type": "event"
    },
    {
      "anonymous": false,
      "inputs": [
        {
          "indexed": true,
          "internalType": "address",
          "name": "owner",
          "type": "address"
        },
        {
          "indexed": true,
          "internalType": "address",
          "name": "operator",
          "type": "address"
        },
        {
          "indexed": false,
          "internalType": "bool",
          "name": "approved",
          "type": "bool"
        }
      ],
      "name": "ApprovalForAll",
      "type": "event"
    },
    {
      "anonymous": false,
      "inputs": [
        {
          "indexed": true,
          "internalType": "uint256",
          "name": "tokenId",
          "type": "uint256"
        },
        {
          "indexed": false,
          "internalType": "address",
          "name": "seller",
          "type": "address"
        },
        {
          "indexed": false,
          "internalType": "address",
          "name": "owner",
          "type": "address"
        },
        {
          "indexed": false,
          "internalType": "uint256",
          "name": "price",
          "type": "uint256"
        },
        {
          "indexed": false,
          "internalType": "bool",
          "name": "sold",
          "type": "bool"
        }
      ],
      "name": "MarketItemCreated",
      "type": "event"
    },
    {
      "anonymous": false,
      "inputs": [
        {
          "indexed": true,
          "internalType": "address",
          "name": "from",
          "type": "address"
        },
        {
          "indexed": true,
          "internalType": "address",
          "name": "to",
          "type": "address"
        },
        {
          "indexed": true,
          "internalType": "uint256",
          "name": "tokenId",
          "type": "uint256"
        }
      ],
      "name": "Transfer",
      "type": "event"
    },
    {
      "inputs": [
        {
          "internalType": "address",
          "name": "to",
          "type": "address"
        },
        {
          "internalType": "uint256",
          "name": "tokenId",
          "type": "uint256"
        }
      ],
      "name": "approve",
      "outputs": [],
      "stateMutability": "nonpayable",
      "type": "function"
    },
    {
      "inputs": [
        {
          "internalType": "address",
          "name": "owner",
          "type": "address"
        }
      ],
      "name": "balanceOf",
      "outputs": [
        {
          "internalType": "uint256",
          "name": "",
          "type": "uint256"
        }
      ],
      "stateMutability": "view",
      "type": "function"
    },
    {
      "inputs": [
        {
          "internalType": "uint256",
          "name": "tokenId",
          "type": "uint256"
        }
      ],
      "name": "createMarketSale",
      "outputs": [],
      "stateMutability": "payable",
      "type": "function"
    },
    {
      "inputs": [
        {
          "internalType": "string",
          "name": "tokenURI",
          "type": "string"
        },
        {
          "internalType": "uint256",
          "name": "price",
          "type": "uint256"
        }
      ],
      "name": "createTokens",
      "outputs": [
        {
          "internalType": "uint256",
          "name": "",
          "type": "uint256"
        }
      ],
      "stateMutability": "payable",
      "type": "function"
    },
    {
      "inputs": [],
      "name": "fetchItemsListed",
      "outputs": [
        {
          "components": [
            {
              "internalType": "uint256",
              "name": "tokenId",
              "type": "uint256"
            },
            {
              "internalType": "address payable",
              "name": "seller",
              "type": "address"
            },
            {
              "internalType": "address payable",
              "name": "owner",
              "type": "address"
            },
            {
              "internalType": "uint256",
              "name": "price",
              "type": "uint256"
            },
            {
              "internalType": "bool",
              "name": "sold",
              "type": "bool"
            }
          ],
          "internalType": "struct NFTMarketplace.MarketItem[]",
          "name": "",
          "type": "tuple[]"
        }
      ],
      "stateMutability": "view",
      "type": "function"
    },
    {
      "inputs": [],
      "name": "fetchMarketitems",
      "outputs": [
        {
          "components": [
            {
              "internalType": "uint256",
              "name": "tokenId",
              "type": "uint256"
            },
            {
              "internalType": "address payable",
              "name": "seller",
              "type": "address"
            },
            {
              "internalType": "address payable",
              "name": "owner",
              "type": "address"
            },
            {
              "internalType": "uint256",
              "name": "price",
              "type": "uint256"
            },
            {
              "internalType": "bool",
              "name": "sold",
              "type": "bool"
            }
          ],
          "internalType": "struct NFTMarketplace.MarketItem[]",
          "name": "",
          "type": "tuple[]"
        }
      ],
      "stateMutability": "view",
      "type": "function"
    },
    {
      "inputs": [],
      "name": "fetchMyNFTs",
      "outputs": [
        {
          "components": [
            {
              "internalType": "uint256",
              "name": "tokenId",
              "type": "uint256"
            },
            {
              "internalType": "address payable",
              "name": "seller",
              "type": "address"
            },
            {
              "internalType": "address payable",
              "name": "owner",
              "type": "address"
            },
            {
              "internalType": "uint256",
              "name": "price",
              "type": "uint256"
            },
            {
              "internalType": "bool",
              "name": "sold",
              "type": "bool"
            }
          ],
          "internalType": "struct NFTMarketplace.MarketItem[]",
          "name": "",
          "type": "tuple[]"
        }
      ],
      "stateMutability": "view",
      "type": "function"
    },
    {
      "inputs": [
        {
          "internalType": "uint256",
          "name": "tokenId",
          "type": "uint256"
        }
      ],
      "name": "getApproved",
      "outputs": [
        {
          "internalType": "address",
          "name": "",
          "type": "address"
        }
      ],
      "stateMutability": "view",
      "type": "function"
    },
    {
      "inputs": [],
      "name": "getListingPrice",
      "outputs": [
        {
          "internalType": "uint256",
          "name": "",
          "type": "uint256"
        }
      ],
      "stateMutability": "view",
      "type": "function"
    },
    {
      "inputs": [
        {
          "internalType": "address",
          "name": "owner",
          "type": "address"
        },
        {
          "internalType": "address",
          "name": "operator",
          "type": "address"
        }
      ],
      "name": "isApprovedForAll",
      "outputs": [
        {
          "internalType": "bool",
          "name": "",
          "type": "bool"
        }
      ],
      "stateMutability": "view",
      "type": "function"
    },
    {
      "inputs": [],
      "name": "name",
      "outputs": [
        {
          "internalType": "string",
          "name": "",
          "type": "string"
        }
      ],
      "stateMutability": "view",
      "type": "function"
    },
    {
      "inputs": [
        {
          "internalType": "uint256",
          "name": "tokenId",
          "type": "uint256"
        }
      ],
      "name": "ownerOf",
      "outputs": [
        {
          "internalType": "address",
          "name": "",
          "type": "address"
        }
      ],
      "stateMutability": "view",
      "type": "function"
    },
    {
      "inputs": [
        {
          "internalType": "uint256",
          "name": "tokenId",
          "type": "uint256"
        },
        {
          "internalType": "uint256",
          "name": "price",
          "type": "uint256"
        }
      ],
      "name": "resellToken",
      "outputs": [],
      "stateMutability": "payable",
      "type": "function"
    },
    {
      "inputs": [
        {
          "internalType": "address",
          "name": "from",
          "type": "address"
        },
        {
          "internalType": "address",
          "name": "to",
          "type": "address"
        },
        {
          "internalType": "uint256",
          "name": "tokenId",
          "type": "uint256"
        }
      ],
      "name": "safeTransferFrom",
      "outputs": [],
      "stateMutability": "nonpayable",
      "type": "function"
    },
    {
      "inputs": [
        {
          "internalType": "address",
          "name": "from",
          "type": "address"
        },
        {
          "internalType": "address",
          "name": "to",
          "type": "address"
        },
        {
          "internalType": "uint256",
          "name": "tokenId",
          "type": "uint256"
        },
        {
          "internalType": "bytes",
          "name": "_data",
          "type": "bytes"
        }
      ],
      "name": "safeTransferFrom",
      "outputs": [],
      "stateMutability": "nonpayable",
      "type": "function"
    },
    {
      "inputs": [
        {
          "internalType": "address",
          "name": "operator",
          "type": "address"
        },
        {
          "internalType": "bool",
          "name": "approved",
          "type": "bool"
        }
      ],
      "name": "setApprovalForAll",
      "outputs": [],
      "stateMutability": "nonpayable",
      "type": "function"
    },
    {
      "inputs": [
        {
          "internalType": "bytes4",
          "name": "interfaceId",
          "type": "bytes4"
        }
      ],
      "name": "supportsInterface",
      "outputs": [
        {
          "internalType": "bool",
          "name": "",
          "type": "bool"
        }
      ],
      "stateMutability": "view",
      "type": "function"
    },
    {
      "inputs": [],
      "name": "symbol",
      "outputs": [
        {
          "internalType": "string",
          "name": "",
          "type": "string"
        }
      ],
      "stateMutability": "view",
      "type": "function"
    },
    {
      "inputs": [
        {
          "internalType": "uint256",
          "name": "tokenId",
          "type": "uint256"
        }
      ],
      "name": "tokenURI",
      "outputs": [
        {
          "internalType": "string",
          "name": "",
          "type": "string"
        }
      ],
      "stateMutability": "view",
      "type": "function"
    },
    {
      "inputs": [
        {
          "internalType": "address",
          "name": "from",
          "type": "address"
        },
        {
          "internalType": "address",
          "name": "to",
          "type": "address"
        },
        {
          "internalType": "uint256",
          "name": "tokenId",
          "type": "uint256"
        }
      ],
      "name": "transferFrom",
      "outputs": [],
      "stateMutability": "nonpayable",
      "type": "function"
    },
    {
      "inputs": [
        {
          "internalType": "uint256",
          "name": "_listingPrice",
          "type": "uint256"
        }
      ],
      "name": "update",
      "outputs": [],
      "stateMutability": "payable",
      "type": "function"
    }
  ],
  "bytecode": "0x60806040526658d15e176280006009553480156200001c57600080fd5b506040518060400160405280601081526020017f4d657461766572736520546f6b656e73000000000000000000000000000000008152506040518060400160405280600481526020017f4d455454000000000000000000000000000000000000000000000000000000008152508160009080519060200190620000a192919062000104565b508060019080519060200190620000ba92919062000104565b50505033600a60006101000a81548173ffffffffffffffffffffffffffffffffffffffff021916908373ffffffffffffffffffffffffffffffffffffffff16021790555062000219565b8280546200011290620001b4565b90600052602060002090601f01602090048101928262000136576000855562000182565b82601f106200015157805160ff191683800117855562000182565b8280016001018555821562000182579182015b828111156200018157825182559160200191906001019062000164565b5b50905062000191919062000195565b5090565b5b80821115620001b057600081600090555060010162000196565b5090565b60006002820490506001821680620001cd57607f821691505b60208210811415620001e457620001e3620001ea565b5b50919050565b7f4e487b7100000000000000000000000000000000000000000000000000000000600052602260045260246000fd5b6143ee80620002296000396000f3fe60806040526004361061012a5760003560e01c80636352211e116100ab578063a22cb4651161006f578063a22cb465146103ec578063b88d4fde14610415578063be9af5361461043e578063c87b56dd1461045a578063e219fc7514610497578063e985e9c5146104b35761012a565b80636352211e1461030057806370a082311461033d57806382ab890a1461037a57806385006bc01461039657806395d89b41146103c15761012a565b806312e85585116100f257806312e855851461022d578063202e37401461025857806323b872dd1461028357806342842e0e146102ac57806345f8fa80146102d55761012a565b806301ffc9a71461012f57806306fdde031461016c578063081812fc1461019757806308bc86b6146101d4578063095ea7b314610204575b600080fd5b34801561013b57600080fd5b5061015660048036038101906101519190612e9c565b6104f0565b6040516101639190613599565b60405180910390f35b34801561017857600080fd5b506101816105d2565b60405161018e91906135b4565b60405180910390f35b3480156101a357600080fd5b506101be60048036038101906101b99190612f42565b610664565b6040516101cb91906134cb565b60405180910390f35b6101ee60048036038101906101e99190612eee565b6106e9565b6040516101fb91906138b6565b60405180910390f35b34801561021057600080fd5b5061022b60048036038101906102269190612e60565b61072b565b005b34801561023957600080fd5b50610242610843565b60405161024f91906138b6565b60405180910390f35b34801561026457600080fd5b5061026d61084d565b60405161027a9190613577565b60405180910390f35b34801561028f57600080fd5b506102aa60048036038101906102a59190612d5a565b610b87565b005b3480156102b857600080fd5b506102d360048036038101906102ce9190612d5a565b610be7565b005b3480156102e157600080fd5b506102ea610c07565b6040516102f79190613577565b60405180910390f35b34801561030c57600080fd5b5061032760048036038101906103229190612f42565b610f41565b60405161033491906134cb565b60405180910390f35b34801561034957600080fd5b50610364600480360381019061035f9190612cf5565b610ff3565b60405161037191906138b6565b60405180910390f35b610394600480360381019061038f9190612f42565b6110ab565b005b3480156103a257600080fd5b506103ab611145565b6040516103b89190613577565b60405180910390f35b3480156103cd57600080fd5b506103d66113fa565b6040516103e391906135b4565b60405180910390f35b3480156103f857600080fd5b50610413600480360381019061040e9190612e24565b61148c565b005b34801561042157600080fd5b5061043c60048036038101906104379190612da9565b6114a2565b005b61045860048036038101906104539190612f42565b611504565b005b34801561046657600080fd5b50610481600480360381019061047c9190612f42565b61173c565b60405161048e91906135b4565b60405180910390f35b6104b160048036038101906104ac9190612f6b565b61188e565b005b3480156104bf57600080fd5b506104da60048036038101906104d59190612d1e565b611a83565b6040516104e79190613599565b60405180910390f35b60007f80ac58cd000000000000000000000000000000000000000000000000000000007bffffffffffffffffffffffffffffffffffffffffffffffffffffffff1916827bffffffffffffffffffffffffffffffffffffffffffffffffffffffff191614806105bb57507f5b5e139f000000000000000000000000000000000000000000000000000000007bffffffffffffffffffffffffffffffffffffffffffffffffffffffff1916827bffffffffffffffffffffffffffffffffffffffffffffffffffffffff1916145b806105cb57506105ca82611b17565b5b9050919050565b6060600080546105e190613b57565b80601f016020809104026020016040519081016040528092919081815260200182805461060d90613b57565b801561065a5780601f1061062f5761010080835404028352916020019161065a565b820191906000526020600020905b81548152906001019060200180831161063d57829003601f168201915b5050505050905090565b600061066f82611b81565b6106ae576040517f08c379a00000000000000000000000000000000000000000000000000000000081526004016106a5906137b6565b60405180910390fd5b6004600083815260200190815260200160002060009054906101000a900473ffffffffffffffffffffffffffffffffffffffff169050919050565b60006106f56007611bed565b60006107016007611c03565b905061070d3382611c11565b6107178185611deb565b6107218184611e5f565b8091505092915050565b600061073682610f41565b90508073ffffffffffffffffffffffffffffffffffffffff168373ffffffffffffffffffffffffffffffffffffffff1614156107a7576040517f08c379a000000000000000000000000000000000000000000000000000000000815260040161079e90613836565b60405180910390fd5b8073ffffffffffffffffffffffffffffffffffffffff166107c6612062565b73ffffffffffffffffffffffffffffffffffffffff1614806107f557506107f4816107ef612062565b611a83565b5b610834576040517f08c379a000000000000000000000000000000000000000000000000000000000815260040161082b906136f6565b60405180910390fd5b61083e838361206a565b505050565b6000600954905090565b6060600061085b6007611c03565b905060008060005b83811015610904573373ffffffffffffffffffffffffffffffffffffffff16600b600060018461089391906139d4565b815260200190815260200160002060020160009054906101000a900473ffffffffffffffffffffffffffffffffffffffff1673ffffffffffffffffffffffffffffffffffffffff1614156108f1576001836108ee91906139d4565b92505b80806108fc90613bba565b915050610863565b5060008267ffffffffffffffff811115610947577f4e487b7100000000000000000000000000000000000000000000000000000000600052604160045260246000fd5b60405190808252806020026020018201604052801561098057816020015b61096d612abc565b8152602001906001900390816109655790505b50905060005b84811015610b7c573373ffffffffffffffffffffffffffffffffffffffff16600b60006001846109b691906139d4565b815260200190815260200160002060020160009054906101000a900473ffffffffffffffffffffffffffffffffffffffff1673ffffffffffffffffffffffffffffffffffffffff161415610b69576000600182610a1391906139d4565b90506000600b60008381526020019081526020016000209050806040518060a0016040529081600082015481526020016001820160009054906101000a900473ffffffffffffffffffffffffffffffffffffffff1673ffffffffffffffffffffffffffffffffffffffff1673ffffffffffffffffffffffffffffffffffffffff1681526020016002820160009054906101000a900473ffffffffffffffffffffffffffffffffffffffff1673ffffffffffffffffffffffffffffffffffffffff1673ffffffffffffffffffffffffffffffffffffffff168152602001600382015481526020016004820160009054906101000a900460ff161515151581525050848681518110610b4c577f4e487b7100000000000000000000000000000000000000000000000000000000600052603260045260246000fd5b6020026020010181905250600185610b6491906139d4565b945050505b8080610b7490613bba565b915050610986565b508094505050505090565b610b98610b92612062565b82612123565b610bd7576040517f08c379a0000000000000000000000000000000000000000000000000000000008152600401610bce90613876565b60405180910390fd5b610be2838383612201565b505050565b610c02838383604051806020016040528060008152506114a2565b505050565b60606000610c156007611c03565b905060008060005b83811015610cbe573373ffffffffffffffffffffffffffffffffffffffff16600b6000600184610c4d91906139d4565b815260200190815260200160002060010160009054906101000a900473ffffffffffffffffffffffffffffffffffffffff1673ffffffffffffffffffffffffffffffffffffffff161415610cab57600183610ca891906139d4565b92505b8080610cb690613bba565b915050610c1d565b5060008267ffffffffffffffff811115610d01577f4e487b7100000000000000000000000000000000000000000000000000000000600052604160045260246000fd5b604051908082528060200260200182016040528015610d3a57816020015b610d27612abc565b815260200190600190039081610d1f5790505b50905060005b84811015610f36573373ffffffffffffffffffffffffffffffffffffffff16600b6000600184610d7091906139d4565b815260200190815260200160002060010160009054906101000a900473ffffffffffffffffffffffffffffffffffffffff1673ffffffffffffffffffffffffffffffffffffffff161415610f23576000600182610dcd91906139d4565b90506000600b60008381526020019081526020016000209050806040518060a0016040529081600082015481526020016001820160009054906101000a900473ffffffffffffffffffffffffffffffffffffffff1673ffffffffffffffffffffffffffffffffffffffff1673ffffffffffffffffffffffffffffffffffffffff1681526020016002820160009054906101000a900473ffffffffffffffffffffffffffffffffffffffff1673ffffffffffffffffffffffffffffffffffffffff1673ffffffffffffffffffffffffffffffffffffffff168152602001600382015481526020016004820160009054906101000a900460ff161515151581525050848681518110610f06577f4e487b7100000000000000000000000000000000000000000000000000000000600052603260045260246000fd5b6020026020010181905250600185610f1e91906139d4565b945050505b8080610f2e90613bba565b915050610d40565b508094505050505090565b6000806002600084815260200190815260200160002060009054906101000a900473ffffffffffffffffffffffffffffffffffffffff169050600073ffffffffffffffffffffffffffffffffffffffff168173ffffffffffffffffffffffffffffffffffffffff161415610fea576040517f08c379a0000000000000000000000000000000000000000000000000000000008152600401610fe190613736565b60405180910390fd5b80915050919050565b60008073ffffffffffffffffffffffffffffffffffffffff168273ffffffffffffffffffffffffffffffffffffffff161415611064576040517f08c379a000000000000000000000000000000000000000000000000000000000815260040161105b90613716565b60405180910390fd5b600360008373ffffffffffffffffffffffffffffffffffffffff1673ffffffffffffffffffffffffffffffffffffffff168152602001908152602001600020549050919050565b3373ffffffffffffffffffffffffffffffffffffffff16600a60009054906101000a900473ffffffffffffffffffffffffffffffffffffffff1673ffffffffffffffffffffffffffffffffffffffff161461113b576040517f08c379a000000000000000000000000000000000000000000000000000000000815260040161113290613656565b60405180910390fd5b8060098190555050565b606060006111536007611c03565b905060006111616008611c03565b61116b6007611c03565b6111759190613a5b565b90506000808267ffffffffffffffff8111156111ba577f4e487b7100000000000000000000000000000000000000000000000000000000600052604160045260246000fd5b6040519080825280602002602001820160405280156111f357816020015b6111e0612abc565b8152602001906001900390816111d85790505b50905060005b848110156113ef573073ffffffffffffffffffffffffffffffffffffffff16600b600060018461122991906139d4565b815260200190815260200160002060020160009054906101000a900473ffffffffffffffffffffffffffffffffffffffff1673ffffffffffffffffffffffffffffffffffffffff1614156113dc57600060018261128691906139d4565b90506000600b60008381526020019081526020016000209050806040518060a0016040529081600082015481526020016001820160009054906101000a900473ffffffffffffffffffffffffffffffffffffffff1673ffffffffffffffffffffffffffffffffffffffff1673ffffffffffffffffffffffffffffffffffffffff1681526020016002820160009054906101000a900473ffffffffffffffffffffffffffffffffffffffff1673ffffffffffffffffffffffffffffffffffffffff1673ffffffffffffffffffffffffffffffffffffffff168152602001600382015481526020016004820160009054906101000a900460ff1615151515815250508486815181106113bf577f4e487b7100000000000000000000000000000000000000000000000000000000600052603260045260246000fd5b60200260200101819052506001856113d791906139d4565b945050505b80806113e790613bba565b9150506111f9565b508094505050505090565b60606001805461140990613b57565b80601f016020809104026020016040519081016040528092919081815260200182805461143590613b57565b80156114825780601f1061145757610100808354040283529160200191611482565b820191906000526020600020905b81548152906001019060200180831161146557829003601f168201915b5050505050905090565b61149e611497612062565b8383612468565b5050565b6114b36114ad612062565b83612123565b6114f2576040517f08c379a00000000000000000000000000000000000000000000000000000000081526004016114e990613876565b60405180910390fd5b6114fe848484846125d5565b50505050565b6000600b6000838152602001908152602001600020600301549050803414611561576040517f08c379a0000000000000000000000000000000000000000000000000000000008152600401611558906137d6565b60405180910390fd5b33600b600084815260200190815260200160002060020160006101000a81548173ffffffffffffffffffffffffffffffffffffffff021916908373ffffffffffffffffffffffffffffffffffffffff1602179055506000600b600084815260200190815260200160002060040160006101000a81548160ff0219169083151502179055506000600b600084815260200190815260200160002060010160006101000a81548173ffffffffffffffffffffffffffffffffffffffff021916908373ffffffffffffffffffffffffffffffffffffffff1602179055506116456008611bed565b611650303384612201565b600a60009054906101000a900473ffffffffffffffffffffffffffffffffffffffff1673ffffffffffffffffffffffffffffffffffffffff166108fc6009549081150290604051600060405180830381858888f193505050501580156116ba573d6000803e3d6000fd5b50600b600083815260200190815260200160002060010160009054906101000a900473ffffffffffffffffffffffffffffffffffffffff1673ffffffffffffffffffffffffffffffffffffffff166108fc829081150290604051600060405180830381858888f19350505050158015611737573d6000803e3d6000fd5b505050565b606061174782611b81565b611786576040517f08c379a000000000000000000000000000000000000000000000000000000000815260040161177d90613796565b60405180910390fd5b60006006600084815260200190815260200160002080546117a690613b57565b80601f01602080910402602001604051908101604052809291908181526020018280546117d290613b57565b801561181f5780601f106117f45761010080835404028352916020019161181f565b820191906000526020600020905b81548152906001019060200180831161180257829003601f168201915b505050505090506000611830612631565b9050600081511415611846578192505050611889565b60008251111561187b5780826040516020016118639291906134a7565b60405160208183030381529060405292505050611889565b61188484612648565b925050505b919050565b3373ffffffffffffffffffffffffffffffffffffffff16600b600084815260200190815260200160002060020160009054906101000a900473ffffffffffffffffffffffffffffffffffffffff1673ffffffffffffffffffffffffffffffffffffffff1614611932576040517f08c379a000000000000000000000000000000000000000000000000000000000815260040161192990613896565b60405180910390fd5b6009543414611976576040517f08c379a000000000000000000000000000000000000000000000000000000000815260040161196d906136b6565b60405180910390fd5b6000600b600084815260200190815260200160002060040160006101000a81548160ff02191690831515021790555080600b60008481526020019081526020016000206003018190555033600b600084815260200190815260200160002060010160006101000a81548173ffffffffffffffffffffffffffffffffffffffff021916908373ffffffffffffffffffffffffffffffffffffffff16021790555030600b600084815260200190815260200160002060020160006101000a81548173ffffffffffffffffffffffffffffffffffffffff021916908373ffffffffffffffffffffffffffffffffffffffff160217905550611a7460086126ef565b611a7f333084612201565b5050565b6000600560008473ffffffffffffffffffffffffffffffffffffffff1673ffffffffffffffffffffffffffffffffffffffff16815260200190815260200160002060008373ffffffffffffffffffffffffffffffffffffffff1673ffffffffffffffffffffffffffffffffffffffff16815260200190815260200160002060009054906101000a900460ff16905092915050565b60007f01ffc9a7000000000000000000000000000000000000000000000000000000007bffffffffffffffffffffffffffffffffffffffffffffffffffffffff1916827bffffffffffffffffffffffffffffffffffffffffffffffffffffffff1916149050919050565b60008073ffffffffffffffffffffffffffffffffffffffff166002600084815260200190815260200160002060009054906101000a900473ffffffffffffffffffffffffffffffffffffffff1673ffffffffffffffffffffffffffffffffffffffff1614159050919050565b6001816000016000828254019250508190555050565b600081600001549050919050565b600073ffffffffffffffffffffffffffffffffffffffff168273ffffffffffffffffffffffffffffffffffffffff161415611c81576040517f08c379a0000000000000000000000000000000000000000000000000000000008152600401611c7890613776565b60405180910390fd5b611c8a81611b81565b15611cca576040517f08c379a0000000000000000000000000000000000000000000000000000000008152600401611cc190613636565b60405180910390fd5b611cd66000838361274b565b6001600360008473ffffffffffffffffffffffffffffffffffffffff1673ffffffffffffffffffffffffffffffffffffffff1681526020019081526020016000206000828254611d2691906139d4565b92505081905550816002600083815260200190815260200160002060006101000a81548173ffffffffffffffffffffffffffffffffffffffff021916908373ffffffffffffffffffffffffffffffffffffffff160217905550808273ffffffffffffffffffffffffffffffffffffffff16600073ffffffffffffffffffffffffffffffffffffffff167fddf252ad1be2c89b69c2b068fc378daa952ba7f163c4a11628f55a4df523b3ef60405160405180910390a4611de760008383612750565b5050565b611df482611b81565b611e33576040517f08c379a0000000000000000000000000000000000000000000000000000000008152600401611e2a90613756565b60405180910390fd5b80600660008481526020019081526020016000209080519060200190611e5a929190612b19565b505050565b60008111611ea2576040517f08c379a0000000000000000000000000000000000000000000000000000000008152600401611e9990613856565b60405180910390fd5b6009543414611ee6576040517f08c379a0000000000000000000000000000000000000000000000000000000008152600401611edd90613816565b60405180910390fd5b6040518060a001604052808381526020013373ffffffffffffffffffffffffffffffffffffffff1681526020013073ffffffffffffffffffffffffffffffffffffffff16815260200182815260200160001515815250600b60008481526020019081526020016000206000820151816000015560208201518160010160006101000a81548173ffffffffffffffffffffffffffffffffffffffff021916908373ffffffffffffffffffffffffffffffffffffffff16021790555060408201518160020160006101000a81548173ffffffffffffffffffffffffffffffffffffffff021916908373ffffffffffffffffffffffffffffffffffffffff1602179055506060820151816003015560808201518160040160006101000a81548160ff02191690831515021790555090505061201f333084612201565b817fb640004f1d14576d0c209e240cad0410e0d8c0c33a09375861fbadae2588a98d333084600060405161205694939291906134e6565b60405180910390a25050565b600033905090565b816004600083815260200190815260200160002060006101000a81548173ffffffffffffffffffffffffffffffffffffffff021916908373ffffffffffffffffffffffffffffffffffffffff160217905550808273ffffffffffffffffffffffffffffffffffffffff166120dd83610f41565b73ffffffffffffffffffffffffffffffffffffffff167f8c5be1e5ebec7d5bd14f71427d1e84f3dd0314c0f7b2291e5b200ac8c7c3b92560405160405180910390a45050565b600061212e82611b81565b61216d576040517f08c379a0000000000000000000000000000000000000000000000000000000008152600401612164906136d6565b60405180910390fd5b600061217883610f41565b90508073ffffffffffffffffffffffffffffffffffffffff168473ffffffffffffffffffffffffffffffffffffffff1614806121e757508373ffffffffffffffffffffffffffffffffffffffff166121cf84610664565b73ffffffffffffffffffffffffffffffffffffffff16145b806121f857506121f78185611a83565b5b91505092915050565b8273ffffffffffffffffffffffffffffffffffffffff1661222182610f41565b73ffffffffffffffffffffffffffffffffffffffff1614612277576040517f08c379a000000000000000000000000000000000000000000000000000000000815260040161226e90613616565b60405180910390fd5b600073ffffffffffffffffffffffffffffffffffffffff168273ffffffffffffffffffffffffffffffffffffffff1614156122e7576040517f08c379a00000000000000000000000000000000000000000000000000000000081526004016122de90613676565b60405180910390fd5b6122f283838361274b565b6122fd60008261206a565b6001600360008573ffffffffffffffffffffffffffffffffffffffff1673ffffffffffffffffffffffffffffffffffffffff168152602001908152602001600020600082825461234d9190613a5b565b925050819055506001600360008473ffffffffffffffffffffffffffffffffffffffff1673ffffffffffffffffffffffffffffffffffffffff16815260200190815260200160002060008282546123a491906139d4565b92505081905550816002600083815260200190815260200160002060006101000a81548173ffffffffffffffffffffffffffffffffffffffff021916908373ffffffffffffffffffffffffffffffffffffffff160217905550808273ffffffffffffffffffffffffffffffffffffffff168473ffffffffffffffffffffffffffffffffffffffff167fddf252ad1be2c89b69c2b068fc378daa952ba7f163c4a11628f55a4df523b3ef60405160405180910390a4612463838383612750565b505050565b8173ffffffffffffffffffffffffffffffffffffffff168373ffffffffffffffffffffffffffffffffffffffff1614156124d7576040517f08c379a00000000000000000000000000000000000000000000000000000000081526004016124ce90613696565b60405180910390fd5b80600560008573ffffffffffffffffffffffffffffffffffffffff1673ffffffffffffffffffffffffffffffffffffffff16815260200190815260200160002060008473ffffffffffffffffffffffffffffffffffffffff1673ffffffffffffffffffffffffffffffffffffffff16815260200190815260200160002060006101000a81548160ff0219169083151502179055508173ffffffffffffffffffffffffffffffffffffffff168373ffffffffffffffffffffffffffffffffffffffff167f17307eab39ab6107e8899845ad3d59bd9653f200f220920489ca2b5937696c31836040516125c89190613599565b60405180910390a3505050565b6125e0848484612201565b6125ec84848484612755565b61262b576040517f08c379a0000000000000000000000000000000000000000000000000000000008152600401612622906135f6565b60405180910390fd5b50505050565b606060405180602001604052806000815250905090565b606061265382611b81565b612692576040517f08c379a0000000000000000000000000000000000000000000000000000000008152600401612689906137f6565b60405180910390fd5b600061269c612631565b905060008151116126bc57604051806020016040528060008152506126e7565b806126c6846128ec565b6040516020016126d79291906134a7565b6040516020818303038152906040525b915050919050565b6000816000015490506000811161273b576040517f08c379a0000000000000000000000000000000000000000000000000000000008152600401612732906135d6565b60405180910390fd5b6001810382600001819055505050565b505050565b505050565b60006127768473ffffffffffffffffffffffffffffffffffffffff16612a99565b156128df578373ffffffffffffffffffffffffffffffffffffffff1663150b7a0261279f612062565b8786866040518563ffffffff1660e01b81526004016127c1949392919061352b565b602060405180830381600087803b1580156127db57600080fd5b505af192505050801561280c57506040513d601f19601f820116820180604052508101906128099190612ec5565b60015b61288f573d806000811461283c576040519150601f19603f3d011682016040523d82523d6000602084013e612841565b606091505b50600081511415612887576040517f08c379a000000000000000000000000000000000000000000000000000000000815260040161287e906135f6565b60405180910390fd5b805181602001fd5b63150b7a0260e01b7bffffffffffffffffffffffffffffffffffffffffffffffffffffffff1916817bffffffffffffffffffffffffffffffffffffffffffffffffffffffff1916149150506128e4565b600190505b949350505050565b60606000821415612934576040518060400160405280600181526020017f30000000000000000000000000000000000000000000000000000000000000008152509050612a94565b600082905060005b6000821461296657808061294f90613bba565b915050600a8261295f9190613a2a565b915061293c565b60008167ffffffffffffffff8111156129a8577f4e487b7100000000000000000000000000000000000000000000000000000000600052604160045260246000fd5b6040519080825280601f01601f1916602001820160405280156129da5781602001600182028036833780820191505090505b5090505b60008514612a8d576001826129f39190613a5b565b9150600a85612a029190613c03565b6030612a0e91906139d4565b60f81b818381518110612a4a577f4e487b7100000000000000000000000000000000000000000000000000000000600052603260045260246000fd5b60200101907effffffffffffffffffffffffffffffffffffffffffffffffffffffffffffff1916908160001a905350600a85612a869190613a2a565b94506129de565b8093505050505b919050565b6000808273ffffffffffffffffffffffffffffffffffffffff163b119050919050565b6040518060a0016040528060008152602001600073ffffffffffffffffffffffffffffffffffffffff168152602001600073ffffffffffffffffffffffffffffffffffffffff168152602001600081526020016000151581525090565b828054612b2590613b57565b90600052602060002090601f016020900481019282612b475760008555612b8e565b82601f10612b6057805160ff1916838001178555612b8e565b82800160010185558215612b8e579182015b82811115612b8d578251825591602001919060010190612b72565b5b509050612b9b9190612b9f565b5090565b5b80821115612bb8576000816000905550600101612ba0565b5090565b6000612bcf612bca846138f6565b6138d1565b905082815260208101848484011115612be757600080fd5b612bf2848285613b15565b509392505050565b6000612c0d612c0884613927565b6138d1565b905082815260208101848484011115612c2557600080fd5b612c30848285613b15565b509392505050565b600081359050612c478161435c565b92915050565b600081359050612c5c81614373565b92915050565b600081359050612c718161438a565b92915050565b600081519050612c868161438a565b92915050565b600082601f830112612c9d57600080fd5b8135612cad848260208601612bbc565b91505092915050565b600082601f830112612cc757600080fd5b8135612cd7848260208601612bfa565b91505092915050565b600081359050612cef816143a1565b92915050565b600060208284031215612d0757600080fd5b6000612d1584828501612c38565b91505092915050565b60008060408385031215612d3157600080fd5b6000612d3f85828601612c38565b9250506020612d5085828601612c38565b9150509250929050565b600080600060608486031215612d6f57600080fd5b6000612d7d86828701612c38565b9350506020612d8e86828701612c38565b9250506040612d9f86828701612ce0565b9150509250925092565b60008060008060808587031215612dbf57600080fd5b6000612dcd87828801612c38565b9450506020612dde87828801612c38565b9350506040612def87828801612ce0565b925050606085013567ffffffffffffffff811115612e0c57600080fd5b612e1887828801612c8c565b91505092959194509250565b60008060408385031215612e3757600080fd5b6000612e4585828601612c38565b9250506020612e5685828601612c4d565b9150509250929050565b60008060408385031215612e7357600080fd5b6000612e8185828601612c38565b9250506020612e9285828601612ce0565b9150509250929050565b600060208284031215612eae57600080fd5b6000612ebc84828501612c62565b91505092915050565b600060208284031215612ed757600080fd5b6000612ee584828501612c77565b91505092915050565b60008060408385031215612f0157600080fd5b600083013567ffffffffffffffff811115612f1b57600080fd5b612f2785828601612cb6565b9250506020612f3885828601612ce0565b9150509250929050565b600060208284031215612f5457600080fd5b6000612f6284828501612ce0565b91505092915050565b60008060408385031215612f7e57600080fd5b6000612f8c85828601612ce0565b9250506020612f9d85828601612ce0565b9150509250929050565b6000612fb38383613421565b60a08301905092915050565b612fc881613aa1565b82525050565b612fd781613a8f565b82525050565b6000612fe882613968565b612ff28185613996565b9350612ffd83613958565b8060005b8381101561302e5781516130158882612fa7565b975061302083613989565b925050600181019050613001565b5085935050505092915050565b61304481613ab3565b82525050565b61305381613ab3565b82525050565b600061306482613973565b61306e81856139a7565b935061307e818560208601613b24565b61308781613cf0565b840191505092915050565b600061309d8261397e565b6130a781856139b8565b93506130b7818560208601613b24565b6130c081613cf0565b840191505092915050565b60006130d68261397e565b6130e081856139c9565b93506130f0818560208601613b24565b80840191505092915050565b6000613109601b836139b8565b915061311482613d01565b602082019050919050565b600061312c6032836139b8565b915061313782613d2a565b604082019050919050565b600061314f6025836139b8565b915061315a82613d79565b604082019050919050565b6000613172601c836139b8565b915061317d82613dc8565b602082019050919050565b60006131956033836139b8565b91506131a082613df1565b604082019050919050565b60006131b86024836139b8565b91506131c382613e40565b604082019050919050565b60006131db6019836139b8565b91506131e682613e8f565b602082019050919050565b60006131fe6020836139b8565b915061320982613eb8565b602082019050919050565b6000613221602c836139b8565b915061322c82613ee1565b604082019050919050565b60006132446038836139b8565b915061324f82613f30565b604082019050919050565b6000613267602a836139b8565b915061327282613f7f565b604082019050919050565b600061328a6029836139b8565b915061329582613fce565b604082019050919050565b60006132ad602e836139b8565b91506132b88261401d565b604082019050919050565b60006132d06020836139b8565b91506132db8261406c565b602082019050919050565b60006132f36031836139b8565b91506132fe82614095565b604082019050919050565b6000613316602c836139b8565b9150613321826140e4565b604082019050919050565b6000613339604b836139b8565b915061334482614133565b606082019050919050565b600061335c602f836139b8565b9150613367826141a8565b604082019050919050565b600061337f6023836139b8565b915061338a826141f7565b604082019050919050565b60006133a26021836139b8565b91506133ad82614246565b604082019050919050565b60006133c56017836139b8565b91506133d082614295565b602082019050919050565b60006133e86031836139b8565b91506133f3826142be565b604082019050919050565b600061340b6036836139b8565b91506134168261430d565b604082019050919050565b60a0820160008201516134376000850182613489565b50602082015161344a6020850182612fbf565b50604082015161345d6040850182612fbf565b5060608201516134706060850182613489565b506080820151613483608085018261303b565b50505050565b61349281613b0b565b82525050565b6134a181613b0b565b82525050565b60006134b382856130cb565b91506134bf82846130cb565b91508190509392505050565b60006020820190506134e06000830184612fce565b92915050565b60006080820190506134fb6000830187612fce565b6135086020830186612fce565b6135156040830185613498565b613522606083018461304a565b95945050505050565b60006080820190506135406000830187612fce565b61354d6020830186612fce565b61355a6040830185613498565b818103606083015261356c8184613059565b905095945050505050565b600060208201905081810360008301526135918184612fdd565b905092915050565b60006020820190506135ae600083018461304a565b92915050565b600060208201905081810360008301526135ce8184613092565b905092915050565b600060208201905081810360008301526135ef816130fc565b9050919050565b6000602082019050818103600083015261360f8161311f565b9050919050565b6000602082019050818103600083015261362f81613142565b9050919050565b6000602082019050818103600083015261364f81613165565b9050919050565b6000602082019050818103600083015261366f81613188565b9050919050565b6000602082019050818103600083015261368f816131ab565b9050919050565b600060208201905081810360008301526136af816131ce565b9050919050565b600060208201905081810360008301526136cf816131f1565b9050919050565b600060208201905081810360008301526136ef81613214565b9050919050565b6000602082019050818103600083015261370f81613237565b9050919050565b6000602082019050818103600083015261372f8161325a565b9050919050565b6000602082019050818103600083015261374f8161327d565b9050919050565b6000602082019050818103600083015261376f816132a0565b9050919050565b6000602082019050818103600083015261378f816132c3565b9050919050565b600060208201905081810360008301526137af816132e6565b9050919050565b600060208201905081810360008301526137cf81613309565b9050919050565b600060208201905081810360008301526137ef8161332c565b9050919050565b6000602082019050818103600083015261380f8161334f565b9050919050565b6000602082019050818103600083015261382f81613372565b9050919050565b6000602082019050818103600083015261384f81613395565b9050919050565b6000602082019050818103600083015261386f816133b8565b9050919050565b6000602082019050818103600083015261388f816133db565b9050919050565b600060208201905081810360008301526138af816133fe565b9050919050565b60006020820190506138cb6000830184613498565b92915050565b60006138db6138ec565b90506138e78282613b89565b919050565b6000604051905090565b600067ffffffffffffffff82111561391157613910613cc1565b5b61391a82613cf0565b9050602081019050919050565b600067ffffffffffffffff82111561394257613941613cc1565b5b61394b82613cf0565b9050602081019050919050565b6000819050602082019050919050565b600081519050919050565b600081519050919050565b600081519050919050565b6000602082019050919050565b600082825260208201905092915050565b600082825260208201905092915050565b600082825260208201905092915050565b600081905092915050565b60006139df82613b0b565b91506139ea83613b0b565b9250827fffffffffffffffffffffffffffffffffffffffffffffffffffffffffffffffff03821115613a1f57613a1e613c34565b5b828201905092915050565b6000613a3582613b0b565b9150613a4083613b0b565b925082613a5057613a4f613c63565b5b828204905092915050565b6000613a6682613b0b565b9150613a7183613b0b565b925082821015613a8457613a83613c34565b5b828203905092915050565b6000613a9a82613aeb565b9050919050565b6000613aac82613aeb565b9050919050565b60008115159050919050565b60007fffffffff0000000000000000000000000000000000000000000000000000000082169050919050565b600073ffffffffffffffffffffffffffffffffffffffff82169050919050565b6000819050919050565b82818337600083830152505050565b60005b83811015613b42578082015181840152602081019050613b27565b83811115613b51576000848401525b50505050565b60006002820490506001821680613b6f57607f821691505b60208210811415613b8357613b82613c92565b5b50919050565b613b9282613cf0565b810181811067ffffffffffffffff82111715613bb157613bb0613cc1565b5b80604052505050565b6000613bc582613b0b565b91507fffffffffffffffffffffffffffffffffffffffffffffffffffffffffffffffff821415613bf857613bf7613c34565b5b600182019050919050565b6000613c0e82613b0b565b9150613c1983613b0b565b925082613c2957613c28613c63565b5b828206905092915050565b7f4e487b7100000000000000000000000000000000000000000000000000000000600052601160045260246000fd5b7f4e487b7100000000000000000000000000000000000000000000000000000000600052601260045260246000fd5b7f4e487b7100000000000000000000000000000000000000000000000000000000600052602260045260246000fd5b7f4e487b7100000000000000000000000000000000000000000000000000000000600052604160045260246000fd5b6000601f19601f8301169050919050565b7f436f756e7465723a2064656372656d656e74206f766572666c6f770000000000600082015250565b7f4552433732313a207472616e7366657220746f206e6f6e20455243373231526560008201527f63656976657220696d706c656d656e7465720000000000000000000000000000602082015250565b7f4552433732313a207472616e736665722066726f6d20696e636f72726563742060008201527f6f776e6572000000000000000000000000000000000000000000000000000000602082015250565b7f4552433732313a20746f6b656e20616c7265616479206d696e74656400000000600082015250565b7f4f6e6c79206d61726b6574706c616365206f776e65722063616e20757064617460008201527f6520746865206c697374696e6720707269636500000000000000000000000000602082015250565b7f4552433732313a207472616e7366657220746f20746865207a65726f2061646460008201527f7265737300000000000000000000000000000000000000000000000000000000602082015250565b7f4552433732313a20617070726f766520746f2063616c6c657200000000000000600082015250565b7f5072696365206d75737420626520657175616c20746f206c6973745072696365600082015250565b7f4552433732313a206f70657261746f7220717565727920666f72206e6f6e657860008201527f697374656e7420746f6b656e0000000000000000000000000000000000000000602082015250565b7f4552433732313a20617070726f76652063616c6c6572206973206e6f74206f7760008201527f6e6572206e6f7220617070726f76656420666f7220616c6c0000000000000000602082015250565b7f4552433732313a2062616c616e636520717565727920666f7220746865207a6560008201527f726f206164647265737300000000000000000000000000000000000000000000602082015250565b7f4552433732313a206f776e657220717565727920666f72206e6f6e657869737460008201527f656e7420746f6b656e0000000000000000000000000000000000000000000000602082015250565b7f45524337323155524953746f726167653a2055524920736574206f66206e6f6e60008201527f6578697374656e7420746f6b656e000000000000000000000000000000000000602082015250565b7f4552433732313a206d696e7420746f20746865207a65726f2061646472657373600082015250565b7f45524337323155524953746f726167653a2055524920717565727920666f722060008201527f6e6f6e6578697374656e7420746f6b656e000000000000000000000000000000602082015250565b7f4552433732313a20617070726f76656420717565727920666f72206e6f6e657860008201527f697374656e7420746f6b656e0000000000000000000000000000000000000000602082015250565b7f506c65617365207375626d6974207468652061736b696e67207072696365206960008201527f6e6f7264657220746f20636f6d706c65746520746865207472616e736163746960208201527f6f6e2f7075726368617365000000000000000000000000000000000000000000604082015250565b7f4552433732314d657461646174613a2055524920717565727920666f72206e6f60008201527f6e6578697374656e7420746f6b656e0000000000000000000000000000000000602082015250565b7f5072696365206d75737420626520657175616c20746f206c697374696e67507260008201527f6963650000000000000000000000000000000000000000000000000000000000602082015250565b7f4552433732313a20617070726f76616c20746f2063757272656e74206f776e6560008201527f7200000000000000000000000000000000000000000000000000000000000000602082015250565b7f5072696365206d7573742062652061746c656173742031000000000000000000600082015250565b7f4552433732313a207472616e736665722063616c6c6572206973206e6f74206f60008201527f776e6572206e6f7220617070726f766564000000000000000000000000000000602082015250565b7f4f6e6c7920746865206f776e657220697320617574686f72697a656420746f2060008201527f706572666f726d2074686973206f7065726174696f6e00000000000000000000602082015250565b61436581613a8f565b811461437057600080fd5b50565b61437c81613ab3565b811461438757600080fd5b50565b61439381613abf565b811461439e57600080fd5b50565b6143aa81613b0b565b81146143b557600080fd5b5056fea26469706673582212207f4cbb5a5cf9e450d5ed84329491f1f3d4eda23b64187e7fd643defd335bc0a064736f6c63430008040033",
  "linkReferences": {},
  "deployedLinkReferences": {}
}